:02000002B0004C
:1040000000400B00D0960B00000006000C000502DB
:084010000401E50C00000000B2
:044018001C810B00FC
:10401C0009480A49884208B505D0094A824202D0AB
:10402C00121A03F019FF0748074A0021121A03F06D
:10403C0021FF014808BD00BF74E5032038960B0032
:10404C00E4E50320E4E50320EDE7032070B5074E1B
:10405C00074C03F079FCA41BA4080025AC4200D14A
:10406C0070BD56F8043B98470135F7E7E4950B0013
:10407C0008960B0000F090BC08B500F049FCBDE8B8
:10408C00084003F019BC02F00BBC02F009BC02F0B2
:10409C000FBC000008B5034A03490C2002F054FB86
:1040AC00FEE700BFD5630B0030810B000078B0FA3F
:1040BC0080F04009704701230370704708B502F087
:1040CC008BF9034B1860BDE8084002F079BB00BFC8
:1040DC0028E7032003682BB14268934202D21846AA
:1040EC0003F0B2BE0020704738B50568044645B1F0
:1040FC0043689D4205D2284603F0FCFE013005447E
:10410C002560204638BDF8B5044647680D4621B9F0
:10411C0003687A1C4260D955F8BD084603F0EAFEE4
:10412C00A368461CF2199A42F6D8206832462946F2
:10413C00384403F091FE606830446060ECE70000A6
:10414C0038B504460B46D0E901012568044A091A22
:10415C00284402F0B5FB636801300344636038BD4A
:10416C0045810B0038B504460B46D0E901012568A2
:10417C00044A091A284402F0A3FB63680130034483
:10418C00636038BD48810B0008B5054801F084FB1D
:10419C00034800230361BDE80840012101F0C3B9C5
:1041AC0044E6032010B5FFF7EFFF224801F00FFFA4
:1041BC0021490446214802F0F3FD0A2221461F48FA
:1041CC0002F00BFE1D4802F0F2FD0A2002F0A0FBEB
:1041DC001A4801F0CFFD631E622B0DD8002106207A
:1041EC0003F033FC0021072003F02FFC0121BDE874
:1041FC001040082003F029BCA4F1650240F65E13C0
:10420C009A4209D80021062003F01FFC0121072047
:10421C0003F01BFC0021EAE7A4F6C51441F6621377
:10422C009C4205D80121062003F00FFC0021EEE78B
:10423C0010BD00BFB4E603204C810B0044E6032004
:10424C0038B5FFF7A1FF0C480C4C01F041FF0A48B0
:10425C0001F0C0FE0A490546204602F0A1FD2946A0
:10426C000A22204602F0B9FD204602F0A0FD2046AD
:10427C00BDE8384001F07EBDB4E6032044E60320DF
:10428C005E810B0008B500234377006803F07AF9D0
:10429C00BDE8084002F062B82DE9F0438F188FB0EA
:1042AC00B942CDE9051706468946904680F0C28092
:1042BC0005A80D88FFF718FF0368BB4280F0BA8091
:1042CC0005980378412B49D1013003F0BDFD052839
:1042DC0037DDFF2447F276239D4200F0D38041D88E
:1042EC0047F261239D4200F0A88047F264239D426F
:1042FC006BD046F670539D4241D1784D784EDFF825
:10430C00F4810598B84280F095800378412B4BD10D
:10431C00013003F099FD052839DDFF2405A8FFF7CE
:10432C00E3FEDDF814902946484603F0D9FD01461A
:10433C0000283DD1204603F077FB05A8FFF7D4FEFB
:10434C00DFE70598013003F07FFD0028C1DB0598FD
:10435C00013003F079FD0E30C4B2BBE705A8FFF7BE
:10436C00B9FEF9E747F264739D424FD047F276737A
:10437C009D4200F0978047F261739D426FD00023FD
:10438C00CDE9013302220092728B19463AE005986E
:10439C00013003F059FD0028BFDB0598013003F014
:1043AC0053FD0E30C4B2B9E705A8FFF793FEF9E749
:1043BC003146484603F094FD28B14146484603F087
:1043CC008FFD0028B9D10121B4E70AAB4549079309
:1043DC0007A810230025CDE90853FFF794FE07A882
:1043EC002146FFF7ADFE204603F048FB014607A827
:1043FC00FFF7B8FE089BCDE90155013B0093079BE5
:10440C002A461421304600F057FB13E005A8FFF7AD
:10441C006BFE03689F420DD9A4B20121204603F024
:10442C0003FB05A8FFF756FE011E18BF012120460D
:10443C0003F00BFB0FB0BDE8F0830AAB079307A8A2
:10444C00102329490025CDE90853FFF75CFE07A886
:10445C002146FFF775FE204603F023FBC6E705A8AF
:10446C00FFF742FE03689F42E4D9A4B20121204623
:10447C0003F0DAFA05A8FFF72DFE0146204603F0FB
:10448C0027FBD7E720468DF8284001F069FF03464B
:10449C000AA823B1154A934201D09847CAE701F004
:1044AC005BFFC7E705A8FFF71FFE059B8DF81C40B7
:1044BC00A3EB0901A8EB01012046CDE90A310C91CF
:1044CC0001F058FF03460AA907A823B1084A9342F2
:1044DC0001D09847AEE701F040FFABE774810B00C9
:1044EC0077810B007F810B0082810B0065630B00D1
:1044FC0067630B007B810B002DE9F0418CB004AF9E
:10450C00044605220068391D02F083FD98B3052886
:10451C0004D000202037BD46BDE8F081B7F8053047
:10452C005BBA9AB2A7F80530B7F807305BBA1FFA36
:10453C0083F8A7F80730002AEBD03B7923BB01F0B6
:10454C0009FF0246E060607FB7F80730C0B9B7F8E2
:10455C000510012914D1092B0FD0C82B01D0042B25
:10456C00D8D1012562612046657700F0C3FBFFF7C7
:10457C00A5FD01F0F3FE0120CCE703236377C9E727
:10458C00581F18BF0120C5E7B8F5806F03D9204626
:10459C00FFF778FEEFE708F108036E46DB08A6EBA1
:1045AC00C3039D4604AD20684246294602F031FD06
:1045BC0080454FF000007FD1B7F80730E85401F088
:1045CC00C9FE3B79E060142B00F0A68048D80F2B75
:1045DC0000F0A28007D8022B48D0062B51D02046E1
:1045EC00FFF750FE58E0112BF9D100233B70B7F8C0
:1045FC0007302B449D42C7E903534DD207F10C0001
:10460C00D5F80080FFF770FDFB68B7F807105D1B4D
:10461C004D1BC7E905357B68FD61C3F30F2363832D
:10462C00644B984500F0BF8000F28C80A3F57F238B
:10463C006FF400721344984500F09D8079D8A3F56F
:10464C000033063B984500F09C8003F500330333A0
:10465C0098456BD107F11401384601F07EFE65E0F8
:10466C00292B1BD0372B17D01D2BB8D1637F43B907
:10467C0001236377204600F03DFBFFF71FFD01F09F
:10468C006DFE0023C821B7F805200091CDE9013358
:10469C001946204600F010FA01200DE0A3681BB962
:1046AC00402002F0FDF8A060B7F80780A84445450B
:1046BC00C7E9055802D30020B5462BE7294640220E
:1046CC00A06803F01FFCA368002583F83F5007F196
:1046DC001400FFF709FD036898451BD9786920B1D0
:1046EC00BB69984214D203F0B3FB85B2206802F088
:1046FC0049FF2368A2685A631D870023637701F082
:10470C0029FEA0F59C500838C4E903006061C3E79A
:10471C002846EAE75025E9E77B68B7F80720C3F39A
:10472C000F23638329462046FFF7B6FD00236383DE
:10473C00B2E7214B9845F9D107F11401384601F045
:10474C000CFEF3E71D4B984521D003F19F6303F555
:10475C00003303F5807398451FD003F16E4303F5C6
:10476C00302303F586739845E0D107F114013846E0
:10477C0001F0F3FDDAE707F11401384601F0EDFD25
:10478C00D4E707F11401384601F0E7FDCEE707F155
:10479C001401384601F0E1FDC8E707F11401384671
:1047AC0001F0DBFDC2E707F11401384601F0D5FD3D
:1047BC00BCE700BF766673006462670061636F6E6E
:1047CC002DE9F04104468CB00D46FFF777FC637F72
:1047DC00022B1ED0237F628B0133DBB22377AAB965
:1047EC00022B13D8206802F095FDA8B125B92068DA
:1047FC0002F06EFE00280FDD2046FFF77DFE00283C
:10480C00F5D1206802F0BEFE01F0A8FD237F013B2C
:10481C0023770CB0BDE8F08101F09CFD05462068C3
:10482C0002F078FD677F012F064624D120B965611F
:10483C002046FFF727FDE9E7E3684FF21862EB1A11
:10484C009342F5D84AF6C872934203D82369EB1AFF
:10485C009342DBD9636941F27072EB1A9342D5D95A
:10486C000023CDE9013300931A460621204600F0BF
:10487C0023F96561CAE7002FC8D16369EB1A40B10F
:10488C0041F270729342C1D9206802F07BFE6777C7
:10489C00BCE741F288329342B8D9206802F072FE2C
:1048AC00D4F800C0DCF834E0BCF83880BEF1000F5E
:1048BC001BD0334642467146604602F0ADFC0128DF
:1048CC00D7D16368059301251846258303F012FBA5
:1048DC000022CDE90122059B00902A461D2120468D
:1048EC0000F0EAF82369636190E7084B06930CF13A
:1048FC0020070FCF07AE0FC63B6833704246734696
:10490C0006A9604602F068FDD9E700BFF0910B00E4
:10491C0070B51C481C4E1D4D1D4C01F0E2FC194895
:10492C0001F0F8FC20B10123337000232B702370AD
:10493C00144801F0F9FC20B10023012233702A70D5
:10494C002370104801F0FAFC88B1002333702B70EF
:10495C00012323702378A3B1FFF716FC0D48002127
:10496C00FFF72EFFBDE87040064801F003BA33781C
:10497C000BB1FFF717FC2B78002BEBD0FFF760FC8B
:10498C00E8E770BD44E6032074E5032040E603200D
:10499C0041E60320E4E503202DE9F041012194B028
:1049AC00082003F041F83E4C3E4D0121072003F056
:1049BC003BF80121062003F037F8204601F068FC93
:1049CC00FFF7E2FB4FF0011363613749204602F019
:1049DC00FAF9204601F0CEF9A223AC22A7210093CC
:1049EC0002A8EA2302F0DEF803AC40F6B83001F07E
:1049FC00AFFC0FCC09AF0FC723683B702B4B6B6020
:104A0C0001F0A8FCA0F59C5008380DF1240CC5E968
:104A1C0003006861BCE80F000FAE0FC62C683B6842
:104A2C0033700FAF41F6907323870FCF4FF0000810
:104A3C00C4F8348020340FC43368237044F24F66BA
:104A4C00286802F09FFD85F81D8001F083FC044668
:104A5C006B7F012B0CD001F07DFC001BB04204D805
:104A6C0000212846FFF7ACFEF2E76B7F012BE7D164
:104A7C0003F06CF801F0D8FF03F068F801460C481D
:104A8C0001F093FB48B9FFF77FFB0A49044802F099
:104A9C009AF9034801F06EF9FEE714B0BDE8F08115
:104AAC0044E60320E4E5032085810B009F810B0085
:104ABC00B4E60320C0810B002DE9F04F83B000AFAA
:104ACC00044600683D6B884616469946EB4602F054
:104ADC0021FC00287FD0B8F11D0F04D84C4B23FAD1
:104AEC0008F3DB0702D4637F012B74D146B9668BC4
:104AFC0036B9238B01339BB2002B71D02383268BC9
:104B0C00A8F10C03082B16D8D4E90323934238BF21
:104B1C00134603F1420A01F01DFCAAEB0000002829
:104B2C0060DB00212046FFF74BFE01F013FCAAEBE3
:104B3C0000000028F5DAB9F1000F5AD06B1D7A6B22
:104B4C00002ABA6B08BF002203EB020A0AF1070322
:104B5C0023F00703ADEB030DBB6BC7F804D0EA18C9
:104B6C00C2F3072376BA43EA02238DF80080ADF82E
:104B7C000160ADF80330B9F1000F3CD0002D3AD0F4
:104B8C002A4649460DF1050003F066F9681D7B6B5A
:104B9C003BB1BB6B2BB11A467B68796B184403F0A5
:104BAC005BF9002555452AD2AAEB05027B682068E3
:104BBC00B2F5806F28BF4FF48062591902F05DFA8C
:104BCC000646002001F0C4FBBEB9206802F0DAFCF6
:104BDC00667701F0C3FB0C37DD46BD46BDE8F08FB0
:104BEC0001238BE7217F0029A5D12046FFF7E8FDA3
:104BFC00A1E70523A3E70520C9E73544D2E703D095
:104C0C002046FFF73FFBE6E701F0A4FB2061E2E75B
:104C1C004500002070B5ADF5856D002405920AAAFB
:104C2C0005460E46079207A84FF480621149CDE95C
:104C3C000842FFF768FA314607A8FFF781FADDE969
:104C4C000801079E059B0C4A091A304401F038FEF6
:104C5C00431C089803440893013B0093CDE901449D
:104C6C00079B224614212846FFF726FF0DF5856D7C
:104C7C0070BD00BFE7810B00EA810B0010B51B482B
:104C8C0001F0A5F90021044602461948FFF7C2FFBE
:104C9C00631E622B0DD80021062002F0D6FE0021E7
:104CAC00072002F0D2FE0121BDE81040082002F0DE
:104CBC00CCBEA4F1650240F65E139A4209D80021DD
:104CCC00062002F0C2FE0121072002F0BEFE0021E8
:104CDC00EAE7A4F6C51441F662139C4205D80121FB
:104CEC00062002F0B2FE0021EEE710BDB4E6032070
:104CFC00E4E5032000B595B004AB002201934F23EB
:104D0C0000930292034B1121FFF7D6FE15B05DF80C
:104D1C0004FB00BFF5810B0010B5104C00210120E5
:104D2C0001F032FD204602F077FC04F11C0001F08A
:104D3C00F5FE0B4A0B480023C2E90043C2E90233DB
:104D4C00C2E90433936193836363238701F005F90C
:104D5C00BDE810400448072101F06CBA04E60320BA
:104D6C00E4E50320B4E6032044E603202DE9F04FEC
:104D7C0085B01F46BDF93880BDF83C30A8EB020960
:104D8C00A7EB010AB9F1000FB8BFC9F10009BAF1DC
:104D9C00000FB8BFCAF1000AD14583460C46154630
:104DAC0004DD3A462C4647460D469046BC4205DD8E
:104DBC002A464546904622463C4617463E1BB2B212
:104DCC000092A8EB050282EAE271A1EBE271C6F354
:104DDC00C03202FA86F64545B4BF01224FF0FF32CD
:104DEC00019176100292BC421CDCDBF8002003938C
:104DFC00D145D2F81880C7BF294622462A462146FB
:104E0C005846C047019A039BB61AB1B236B2002E6F
:104E1C0005DA029A1544009A56182DB236B20134AE
:104E2C0024B2E0E705B0BDE8F08F704710B4046819
:104E3C002469A4465DF8044B604730B40468BDF89F
:104E4C0008500295A46BA44630BC604730B404688B
:104E5C00BDF808500295E46BA44630BC604770B4B2
:104E6C00BDF90C50BDF810600468CDE90356246CF4
:104E7C00A44670BC60472DE9F3411C460368BDF89D
:104E8C0020805B6905461646013C34440F4624B22B
:104E9C0098472B68CDF8048000949C6A28463B46C2
:104EAC0032463946A0472B68DB6A284602B0BDE87B
:104EBC00F04118472DE9F3411D460368BDF82080E9
:104ECC005B69044617460E469847CDE90078226880
:104EDC006B1E3344956A20461BB23A463146A847AE
:104EEC002368DB6A204602B0BDE8F04118472DE983
:104EFC00F3471E460368BDF928905B69BDF82C800A
:104F0C000C460546174698472644B4422B680BDAE4
:104F1C00CDF80080D3F820A021464B463A462846CF
:104F2C000134D04724B2F0E7DB6A284602B0BDE872
:104F3C00F047184713B502680191B0F90E100091B3
:104F4C00146CB0F90C3000221146A04702B010BD11
:104F5C002DE9F74399421646BDF92870BDF82C90FF
:104F6C00026880460D461C4613D1BE42C8BF33466C
:104F7C00CDF82890C4BF3E461F467B1C946B9B1BF0
:104F8C001BB2324629464046A44603B0BDE8F04366
:104F9C006047BE420AD19942C2BF0B4625461C4609
:104FAC00631CCDF82890D46B5B1BE9E753699847D9
:104FBC00CDE90079D8F8003040469F6A3246234646
:104FCC002946B847D8F80030DB6A404603B0BDE844
:104FDC00F04318472DE9F3471D460368BDF82C80B4
:104FEC005B69BDF9289004460F461646984723681E
:104FFC00CDF80080D3F824A032462B463946204603
:10500C00D0472368CDF8008009F1FF323244D3F841
:10501C0024A039462B46204612B2D0472368CDF83F
:10502C000080D3F820A032464B4639462046D04764
:10503C006B1ED9192368CDF800801D6A20464B469B
:10504C00324609B2A8472368DB6A204602B0BDE8A5
:10505C00F0471847704701F00303B0F90A20837634
:10506C00C907B0F9083059BF8381C2818281C381DD
:10507C007047000030B54281C281074A074D01815B
:10508C00002481814FF0FF31C0E9051244600560B6
:10509C0004610477046230BD0101000150870B00EC
:1050AC002DE9F04F89B0CDE902120268BDF94880B4
:1050BC000493BDF94C3052690593BDF850A00446D9
:1050CC00904718F107024FF0000648BF08F10E0296
:1050DC004FEAE20B01963546039B019ABDF9041089
:1050EC009A18059B8B4212B227DD049B33444FF078
:1050FC00000906930FFA89F080451FFA89F117DD34
:10510C004F0705BF069BC0106D001D5C18BFEDB2AC
:10511C002B060AD5029B206807921944836909B2B1
:10512C001F4620465346B847079A09F10109E1E7A3
:10513C00019B013301935E44CEE72368DB6A204672
:10514C0009B0BDE8F04F18472DE9F04F2DED028B5B
:10515C0091B01646026ABDF874809DF878509DF89F
:10516C007C4003911F46BDF8703004938346002A9F
:10517C0040F0C580B0F90C308B4240F34C81B0F953
:10518C000E30B34240F34781062313FB0513002B6B
:10519C0040F3418106EBC403002B40F33C81037FB9
:1051AC001BB9AF2F84BF0137FFB2DBF80030584674
:1051BC005B6998470522099200220592984A07EBF1
:1051CC008703D3180C93B3B20693059A0C9B9B5C84
:1051DC000793ABB20B93BDF80C300893039B02FB07
:1051EC0005F919FA83F90FFA89F308EE103A082336
:1051FC000A93039B02EB030A4FF000090FFA8AFA99
:10520C00079ADBF80030D20752D5012D1FFA89F22C
:10521C003ED1012C3CD19B6906991F46049B0A4444
:10522C0012B251465846B84709F101034FFA83F9B7
:10523C00079B5B0807930A9B013B13F0FF030A9340
:10524C00DED1059F01377BB20593099B013B13F01F
:10525C00FF030993B9D1049B43450FD0012DDBF813
:10526C0000303BD1012C39D10899CDF800800531A3
:10527C001C6A3246082309B25846A047DBF80030B6
:10528C00DB6A584611B0BDEC028BBDE8F04F1847F5
:10529C00069914FB02F20A44049901910094DB690B
:1052AC0018EE101A1F4612B22B465846B847BBE7E9
:1052BC00049A4245B8D0012D1FFA89F207D1012C6E
:1052CC0005D19B6906991F460A444346A8E70699EF
:1052DC00CDF8048014FB02F20A44DFE70B9ACDF8F8
:1052EC00048002EB8201089AE4000A4411460094FF
:1052FC00DC6932462B4609B25846A047BEE7137A02
:10530C00516812680B92FF1AFFB201EBC70331F818
:10531C00372006929A780992DA780C92012D93F93B
:10532C00052093F906A00A9201D8012C57D9BDF992
:10533C00283008930FFA8AF30793DBF800305846AD
:10534C005B699847B3B24FF000080E931AFA86F3D4
:10535C00C14647460F930C9B9F428FD2079B0E9AD8
:10536C003B4403FB0423002205920F9A1BB202EB71
:10537C00070A08EE103A0FFA8AFA4346099A059979
:10538C00914241D25A1CD2B25B070D9207D1069BB7
:10539C0006990B9A01339BB212F80190069319F0FF
:1053AC00800F12D0012DDBF80030BDF80C101AD193
:1053BC00012C18D10A9A9B691144059A11441E4676
:1053CC005246049B09B25846B047059E0136F3B2CB
:1053DC004FEA490905935FFA89F90D9BCEE7002343
:1053EC00CDE90733A9E70598089A024402FB051199
:1053FC00049ACDE90042DB6918EE102A1E4609B268
:10540C002B465846B047E0E7099B013798445FFAB2
:10541C0088F8FFB29FE711B0BDEC028BBDE8F08FAE
:10542C0046820B00F0B5026A85B004460B46002A92
:10543C0034D10A2908D1438A0282427E03EBC2038B
:10544C006382012005B0F0BD0D29FAD0E17E007E0B
:10545C00657E71B1B4F91060062111FB0061B4F9DD
:10546C000C60B142C1BFB4F91210228201EBC5022B
:10547C006282E28A0192A28A0092CDE90205B4F915
:10548C001220B4F910102046FFF75EFE237E228A0C
:10549C0003EB430302EB43032382D2E70A2907D130
:1054AC0000230382417E927A438A01FB0233C7E7D1
:1054BC000D29C6D0157AA942C3D3517A9942C0D3CB
:1054CC0051685D1BEDB201EBC505A87828B3E978EE
:1054DC0019B3E17E267E677E91B195F905100844DB
:1054EC00B4F9101006FB0011B4F90C00814207DD71
:1054FC0000202082B4F91210927A02FB0712628209
:10550C00E28A0192A28A0092CDE90267B4F91220D4
:10551C00B4F910102046FFF717FE2979227E238A52
:10552C0001FB0233B8E7012938BF0121017641762E
:10553C007047704710B510210446FEF7A8FD2046B1
:10554C0010BD0EB403B503AB002153F8042B01932B
:10555C0001F061FC02B05DF804EB03B07047000091
:10556C0073B5044608462279A36832B1A3B90B4936
:10557C0002B0BDE8704001F013BC094A267B094D0E
:10558C000949647B012E18BF2946CDE9001407494F
:10559C00FFF7D7FF02B070BD054AEFE7B1870B00EC
:1055AC005D810B00AD870B00A9870B00C7870B0033
:1055BC00A0870B0010B5044B03600446C06A08B109
:1055CC0001F076F9204610BDA08C0B0010B50446F6
:1055DC00FFF7F0FF20465021FEF759FD204610BD85
:1055EC00002910B54BDBB0F90C408C4247DD002A8A
:1055FC0045DBB0F90E40944241DD847E022C1FD075
:10560C00032C26D0012C04D10489D24314440A461D
:10561C0021B2012B23D0022B32D083BB002A13469C
:10562C000489C06AB8BFD31DDB1013FB041102F050
:10563C00070201239340425C22EA030242541EE01B
:10564C000489013C611A4489D243224409B212B242
:10565C00DFE74489013C641A114622B2D9E7002ADB
:10566C0004891346B8BFD31DDB1013FB0411C36AA6
:10567C0002F0070001228240585C02435A5410BDCC
:10568C00002A13460489C06AB8BFD31DDB1013FB74
:10569C00041102F00702012303FA02F2435C5A40A0
:1056AC00CCE7000070B504461D460026FFF7E2FC6F
:1056BC00114B2360666215B902F048FA0546FF23C8
:1056CC0084F8333084F836309DF9103084F8373054
:1056DC000A4BA363012384F83C30059BA3644FF66B
:1056EC00FF72069BA286C4E90A562664A4F844609D
:1056FC00E364204670BD00BFA08C0B00EC870B0050
:10570C00F8B50446806A0D4690B194F9301001F05A
:10571C00C1F9A06A036800219B689847A06A0368D6
:10572C0029469B689847A06ABDE8F84001F0B9B9D2
:10573C0094F93530014698B202F087F9606A20B1CD
:10574C002946BDE8F84001F049BC0826802794F9A9
:10575C00330005EA070180B202F077F994F93400BE
:10576C00012180B202F071F994F93400002180B269
:10577C0002F06BF9013E4FEA5707E8D1F8BD38B596
:10578C000446806A0D4680B1A16C01F049F9002DE8
:10579C00204614BFA721A621FFF7B2FFA06A88B14B
:1057AC00E16CBDE8384001F03BB9606A18B104F116
:1057BC00380101F0A5FB94F93600002180B202F00B
:1057CC0044F9E4E794F93600012180B202F03DF986
:1057DC00606A18B1BDE8384001F078BB38BD2DE9DE
:1057EC00F8430446806A0D468F1840B394F9301084
:1057FC0001F050F9A06A036800219B6898470126C4
:10580C00AF42A06A17D01F2E0CD901F04AF994F9B7
:10581C003010A06A01F03EF9A06A036800219B6871
:10582C0098470126A06A15F8011B036801369B688E
:10583C009847F6B2E4E7BDE8F84301F032B994F9C1
:10584C003530014698B202F000F9BD4222D0606AB0
:10585C0015F8019B18B1494601F0C0FBF5E7082685
:10586C004FF0800894F9330009EA080180B202F085
:10587C00ECF894F93400012180B202F0E6F894F9C6
:10588C003400002180B202F0E0F8013E4FEA5808E3
:10589C00E8D1DAE7BDE8F883B0F90A30DA1D48BF81
:1058AC0003F10E02B0F90830C06AD2105A4300213D
:1058BC0002F0E0BA2DE9FF411E46C36A9DF828802C
:1058CC0004460F461546C3B12046FFF7E5FFB4F971
:1058DC000A00B4F90810202821DC202301222038EA
:1058EC00CDE9013200EBD07073237339009301EBD7
:1058FC00D171894B40F34F0221E0B0F90A30D81D29
:10590C0048BF03F10E00B4F90830C010584300F042
:10591C00C7FFE0620028D7D104B0BDE8F081403861
:10592C00C0F3C03202FA80F240230120CDE90130ED
:10593C00522352390093794B01EBD171521020460E
:10594C0041F34F01FFF7ACFBA06A84F831700028DB
:10595C0078D0002D74D1B4F90A30202B0CBF3C2523
:10596C003D2584F83050B8F1000F01D001F05CF8FF
:10597C00FEB194F9370000281BDB012180B202F044
:10598C0053F894F93700012180B202F05EF801203F
:10599C0000F0BEFF94F93700002180B202F055F8F8
:1059AC000A2000F0B5FF94F93700012180B202F013
:1059BC004CF8A06A002874D0A16C01F031F80422D4
:1059CC0057492046FFF70BFF61890139C9B22046C0
:1059DC00FFF796FE534904222046FFF700FF94F987
:1059EC003130012B0CBF102114212046FFF788FE0B
:1059FC0004224D492046FFF7F2FEA3684B4A93421E
:105A0C005CD14B4904222046FFF7E9FED921204600
:105A1C00FFF776FE94F93130012B0CBF2221F121D6
:105A2C002046FFF76DFE204642490622FFF7D7FEBF
:105A3C00A06A002863D0E16C00F0F2FF01206BE754
:105A4C006DB28EE794F93500012180B201F0ECFFC4
:105A5C0094F93600012180B201F0E6FF94F936008A
:105A6C00012180B201F0F1FF656A3DB1B8F1000F80
:105A7C003FF47EAF284601F015FA79E794F933002C
:105A8C00012180B201F0D0FF94F93400012180B2E1
:105A9C0001F0CAFF94F93400294680B201F0D5FF19
:105AAC0066E7606A18B104F1380101F029FA94F93B
:105ABC003600002180B201F0C8FF80E71E4A9342F5
:105ACC000ED11E4903222046FFF789FE94F931308E
:105ADC00012B0CBF9F21CF212046FFF711FE95E72C
:105AEC00174A934292D1174903222046FFF777FEBB
:105AFC0094F93130012B0CBF1021AF21ECE794F954
:105B0C003600012180B201F0A0FF606A002895D018
:105B1C0001F0DCF992E700BFB88A0B00F8870B00A4
:105B2C00008D0B00048D0B00088D0B0080002000F5
:105B3C00128D0B000C8D0B0080004000168D0B009D
:105B4C0060001000198D0B0070B5002ABDF81050C4
:105B5C003DDBB0F90A40944239DD0029BEBF5B1829
:105B6C001BB20021B0F90840CE18A642C4BF631A7C
:105B7C001BB2002B2BDDC06AD61014FB061101449E
:105B8C0002F0070001228240012DD2B216D0022D64
:105B9C000BD0E5B9D243D2B20B44994217D011F8CD
:105BAC00010B104001F8010CF7E70B4499420ED0A1
:105BBC0011F8010B504001F8010CF7E70B44994226
:105BCC0005D011F8010B104301F8010CF7E770BD7B
:105BDC00F0B50029BDF8145076DBB0F90860B1427D
:105BEC0072DA002ABEBF9B181BB20022B0F90A4021
:105BFC00D718A742C4BFA31A1BB2002B64DDC2F393
:105C0C00C404C76A16FB041612F00702DBB207EBDA
:105C1C00060423D0C2F10802D2B22D4993423CBFF4
:105C2C004FF0FF0CA2EB030E895C3CBF4CFA0EFC50
:105C3C000CEA0101012D07D0022D2ED04DB917F819
:105C4C0006C02CEA010103E017F806C041EA0C017A
:105C5C00B955934238D3B0F908100C449A1AD2B201
:105C6C00072A0ED9022D1DD113462178C943217064
:105C7C00083BB0F90810DBB2072B0C44F5D802F046
:105C8C0007020AB3134B012D9B5C1AD0022D1CD0BA
:105C9C00D5B9227822EA030315E017F806C081EA89
:105CAC000C01D5E7291E18BF01214942C9B2134680
:105CBC002170083BB0F90860DBB2072B3444F7D8ED
:105CCC00DDE7227813432370F0BD22785340FAE7C6
:105CDC00F08C0B00F88C0B0070B41446827EBDF86F
:105CEC000C60022A0DD0032A18D0012A11D1028986
:105CFC00E443144424B203960A46214670BCFFF7D1
:105D0C0067BF42890589E44319441444691A24B2D3
:105D1C0009B20396224670BCFFF716BF4589194499
:105D2C00691A09B2E7E730B41446827EBDF8085010
:105D3C00022A0DD0032A18D0012A11D1E2180489A5
:105D4C00A41A24B202950A46214630BCFFF7FCBEC9
:105D5C000289C9431144E2184489A41A09B224B235
:105D6C000295224630BCFFF733BF4289C943114428
:105D7C0009B2E7E72DE9F8430446806A002842D0CF
:105D8C00A16C00F04DFE474905222046FFF727FD88
:105D9C00218901392046C9B2FFF7B2FCB4F90A30A7
:105DAC00DE1D48BF03F10E06D4E90A052389F6105F
:105DBC0013FB06F615FA86F600283AD094F9301043
:105DCC0000F068FEA06A036840219B689847012791
:105DDC00B542A06A24D01F2F0CD900F062FE94F9B2
:105DEC003010A06A00F056FEA06A036840219B6840
:105DFC0098470127A06A15F8011B036801379B68B7
:105E0C009847FFB2E4E7606A18B104F1380101F079
:105E1C0077F894F93600002180B201F016FEB2E753
:105E2C0000F03FFEA06A78B3E16CBDE8F84300F0E7
:105E3C00F7BD94F93500012180B201F006FEAE42A7
:105E4C00F0D0606A15F8019B18B1494601F0C6F80C
:105E5C00F5E708274FF0800894F9330009EA0801A8
:105E6C0080B201F0F2FD94F93400012180B201F00E
:105E7C00ECFD94F93400002180B201F0E6FD013F05
:105E8C004FEA5808E8D1DAE794F93600012180B2DC
:105E9C0001F0DBFD606A18B1BDE8F84301F016B8FB
:105EAC00BDE8F8831C8D0B0000210A22C0E900120A
:105EBC007047002310B50446C171837188B201F09C
:105ECC00DDFD08B10323A37100F086FA206010BD3C
:105EDC0038B50C4605461146A0B201F0A5FD214689
:105EEC002846BDE83840FFF7E4BF38B50446C07912
:105EFC0001F0C4FDA579003825F0080318BF012076
:105F0C00C5F340058542A3710AD000F065FAA37968
:105F1C00206083F00203A371A079C0F3C00038BDE8
:105F2C0000F05AFA2368C01AA3889842F4D3A379D4
:105F3C0003F00103AB42EFD000F04EFAA3792060DE
:105F4C0083F0010343F00803E5E7807900F00900D2
:105F5C00A0F10803584258417047704710B50446E9
:105F6C006021006800F092FD206800F09AFDB0FA04
:105F7C0080F0400910BD38B505460C46006860211C
:105F8C0000F084FD2868036821469B6898472868C0
:105F9C00002100F082FD08B1002038BD28680222E3
:105FAC00602100F070FD286803681B699847002881
:105FBC00F2D0286803685B69984704462868036830
:105FCC005B699847E4B244EA002080B2E5E7082117
:105FDC00FFF7D1BF0921FFF7CEBF0C21FFF7CBBFD5
:105FEC0070B504460E4600686021154600F04EFD63
:105FFC002068036831469B68984720680368E9B2BB
:10600C009B68984720680368290A9B689847206812
:10601C0000F047FDB0FA80F0400970BD70B5044641
:10602C000D461646FFF7A7FF00F47F4040EA060234
:10603C0029462046BDE87040FFF7D2BF70B5044634
:10604C000D461646FFF797FFC0B240EA06222946D6
:10605C002046BDE87040FFF7C3BF08B5FFF78BFFC4
:10606C00C0F3072008BD2DE9F04104469DF81870D7
:10607C000D46984616466AB1FFF77DFFC0B200EA9E
:10608C00080343EA07022946204636B1BDE8F04131
:10609C00FFF7C4BFFFF7E1FFF1E7BDE8F041FFF701
:1060AC00CDBFB1F5A07F07B50ED29F290ED84F29D1
:1060BC008CBF40230023009301223F230321FFF7D1
:1060CC00D2FF03B05DF804FBC023F4E78023F2E7B2
:1060DC0007B500210091FE230122FFF7C4FF03B096
:1060EC005DF804FB072907B50FD803290FD810D08A
:1060FC0002290CBF0423002300930122F123032166
:10610C00FFF7B1FF03B05DF804FB0E23F4E70C239B
:10611C00F2E70823F0E707B5002300930122FE23E2
:10612C000321FFF7A0FF03B05DF804FB07B50F29AF
:10613C008CBF0823002300930022F7230321FFF7D1
:10614C0092FF03B05DF804FB07B502230093012214
:10615C00EF230421FFF787FF03B05DF804FBC72989
:10616C0007B516D8B32916D89F2916D88B2916D857
:10617C00772916D8632916D84A2994BF0021012102
:10618C000091F82300220421FFF76DFF03B05DF8A6
:10619C0004FB0721F4E70621F2E70521F0E70421CF
:1061AC00EEE70321ECE70221EAE738B5044608469E
:1061BC00216000F039FC2046FFF7D0FE054610B9EF
:1061CC000025284638BD2046FFF707FFB0F5C37FF2
:1061DC00F6D12046C821FFF7C2FF20462821FFF741
:1061EC0060FF20460821FFF77DFF10212046FFF7B6
:1061FC009DFF2046FFF7A8FF2046FFF78CFFE0E746
:10620C0010B5064B03600446006D08B100F0C4F8ED
:10621C002046FFF7CFF9204610BD00BF2C8D0B0098
:10622C0010B50446FFF7ECFF20467021FDF72FFF59
:10623C00204610BD30B585B004460D4601F086FCF5
:10624C00104A1149CDE901214FF0FF32802103465C
:10625C00009220462022FFF725FA0C4B23600023E6
:10626C00C4E9143504F15800FFF71EFE04F1600078
:10627C00FFF71AFE04F16800FFF716FE204605B082
:10628C0030BD00BF801A0600A08601002C8D0B00CB
:10629C0013B50446503000F077F8636DD90705D577
:1062AC000222042104F15800FFF712FE636D9A07D5
:1062BC0005D50022032104F16000FFF709FE636D90
:1062CC005B0705D50222114604F16800FFF700FEBA
:1062DC00012300933C2202212046FFF7EBFA02B087
:1062EC0010BD10B5436DD907044602D55830FFF7E1
:1062FC00FCFD636D9A0703D504F16000FFF7F5FD13
:10630C00636D5B0705D504F16800BDE81040FFF72D
:10631C00ECBD10BD436D024613F0010003D002F139
:10632C005800FFF712BE7047436D024613F002008F
:10633C0003D002F16000FFF708BE7047436D0246C0
:10634C0013F0040003D002F16800FFF7FEBD7047A4
:10635C0000F0DEBA00F040B870477047704700009C
:10636C0003065ABF024B53F820000020704700BFB1
:10637C007C8D0B0003065ABF024B53F82000002003
:10638C00704700BF7C8F0B0008B5024B1B681B6B62
:10639C00019308BD4802030008B5024B1B685B6BF8
:1063AC00019308BD4802030008B5024B1B685B6CE7
:1063BC00019308BD4802030008B5024B1B685B68DB
:1063CC00019308BD1802030008B5024B1B68DB687B
:1063DC00019308BD1802030008B5024B1B685B69EA
:1063EC00019308BD1802030008B5024B1B685B68DB
:1063FC00019308BD2C02030008B5024B1B689B6877
:10640C00019308BD2C02030008B5024B1B68DB6826
:10641C00019308BD2C02030008B5024B1B681B69D5
:10642C00019308BD2C02030008B5024B1B685B6985
:10643C00019308BD2C02030008B5024B1B689B6A34
:10644C00019308BD2C02030008B5024B1B681B6BA3
:10645C00019308BD2C02030008B5024B1B689B6F0F
:10646C00019308BD2C02030008B5024B1B681B6886
:10647C00019308BD2802030008B5024B1B68DB68BA
:10648C00019308BD2802030008B5024B1B689B69E9
:10649C00019308BD2802030008B5024B1B68DB6999
:1064AC00019308BD2802030008B5024B1B681B6A48
:1064BC00019308BD2802030008B5024B1B685B6AF8
:1064CC00019308BD2802030008B5024B1B689B6AA8
:1064DC00019308BD2802030008B5024B1B68DB6A58
:1064EC00019308BD2802030008B5024B1B681B6B07
:1064FC00019308BD2802030008B5024B1B685B6BB7
:10650C00019308BD2802030008B5024B1B681B6CE5
:10651C00019308BD2802030008B5024B1B681B6DD4
:10652C00019308BD2802030008B5024B1B685B6988
:10653C00019308BD6C02030008B5024B1B685B6934
:10654C00019308BD6402030008B5024B1B681B6A6B
:10655C00019308BD6402030008B5024B1B689B6ADB
:10656C00019308BD6402030008B5024B1B689B68CD
:10657C00019308BD6802030008B5024B1B68DB6879
:10658C00019308BD6802030008B5024B1B689B69A8
:10659C00019308BD3802030008B5024B1B68DB6988
:1065AC00019308BD3802030008B5024B1B681B6A37
:1065BC00019308BD3802030008B5024B1B689B6AA7
:1065CC00019308BD3802030008B5024B1B681B6B16
:1065DC00019308BD3802030008B5024B1B689B6B86
:1065EC00019308BD3802030008B5024B1B681B68F9
:1065FC00019308BD3002030008B5024B1B685B69B0
:10660C00019308BD3002030008B5024B1B68DB691F
:10661C00019308BD3002030008B5024B1B681B6ACE
:10662C00019308BD3002030008B5024B1B685B6A7E
:10663C00019308BD3002030008B5024B1B68DB6BED
:10664C00019308BD3002030008B5024B1B681B6C9C
:10665C00019308BD3002030008B5024B1B685B6C4C
:10666C00019308BD3002030008B5024B1B68DB68C0
:10667C00019308BD3C02030008B5024B1B681B6963
:10668C00019308BD3C02030008B5024B1B685B6913
:10669C00019308BD3C02030008B5024B1B689B69C3
:1066AC00019308BD3C02030008B5024B1B68DB6973
:1066BC00019308BD3C02030008B5024B1B681B6A22
:1066CC00019308BD3C02030008B5024B1B689B6A92
:1066DC00019308BD3C02030008B5024B1B681B6C00
:1066EC00019308BD3C02030008B5024B1B681B68F4
:1066FC00019308BD4C02030008B5024B1B681B69D3
:10670C00019308BD4C02030008B5024B1B685B6982
:10671C00019308BD4C02030008B5024B1B689B6932
:10672C00019308BD4C02030008B5024B1B68DB69E2
:10673C00019308BD4C02030008B5024B1B681B6A91
:10674C00019308BD4C02030008B5024B1B685B6B40
:10675C00019308BD6002030008B5024B1B681B6D5A
:10676C00019308BD6002030008B5024B1B685B680F
:10677C00019308BD2002030008B5024B1B685B693E
:10678C00019308BD2002030008B5024B1B68DB6AAD
:10679C00019308BD2002030008B5034B1B68D3F816
:1067AC008830019308BD00002002030008B5034B9C
:1067BC001B68D3F89430019308BD0000200203003D
:1067CC0008B5024B1B689B68019308BD440203008B
:1067DC0008B5024B1B68DB6B019308BD4402030038
:1067EC0008B5024B1B685B68019308BD40020300AF
:1067FC0008B5024B1B689B68019308BD400203005F
:10680C0008B5024B1B68DB68019308BD400203000E
:10681C0008B5024B1B681B69019308BD40020300BD
:10682C0008B5024B1B685B69019308BD400203006D
:10683C0008B5024B1B689B69019308BD400203001D
:10684C0008B5024B1B68DB69019308BD40020300CD
:10685C0008B5024B1B681B6A019308BD400203007C
:10686C0008B5024B1B681B6B019308BD400203006B
:10687C0008B5024B1B685B6B019308BD400203001B
:10688C0008B5024B1B681B6C019308BD400203004A
:10689C0008B5024B1B685B6C019308BD40020300FA
:1068AC0008B5024B1B681B68019308BD1C02030052
:1068BC0008B5024B1B685B68019308BD1C02030002
:1068CC0008B5024B1B68DB69019308BD1C02030071
:1068DC0008B5024B1B685B6A019308BD1C020300E0
:1068EC0008B5024B1B68DB6B019308BD1C0203004F
:1068FC0008B5024B1B681B6C019308BD1C020300FE
:10690C0008B5024B1B685B6C019308BD1C020300AD
:10691C000021FFF731BF0000024800230360FFF79E
:10692C0043BD00BFC4E60320002240681146FFF7B8
:10693C008FBF002240681146FFF79ABF40680022C3
:10694C00FFF78EBF4068002281F00101FFF778BF8E
:10695C00002340681A461946FFF76ABF00234068B7
:10696C001A461946FFF75CBF002240681146FFF734
:10697C004FBF002240681146FFF73ABF4068002223
:10698C000221FFF73DBF002340681A46FFF728BFDE
:10699C00024B03225A60024A1A607047C8E6032071
:1069AC008C910B007047F8B5064615460C468F18AF
:1069BC00BC4206D0336814F8011B9B6830469847DC
:1069CC00F6E72846F8BD007C0022FFF76DBD007C81
:1069DC000021FFF771BD007C0021FFF775BD007C25
:1069EC000021FFF779BD007C0021FFF77DBD10B5BC
:1069FC0014210446FDF74BFB204610BD10B54FF497
:106A0C007A73044608460021C4E90113034B236042
:106A1C0020741146FFF778FD204610BDC8910B007D
:106A2C00007C0022FFF720BD0023007C1A4619468B
:106A3C00FFF722BD7FB500221423CDE90122ADF86A
:106A4C0004300B788DF808304B680393CB680493B3
:106A5C00007C0B7A059301A9FFF75EFD07B05DF88A
:106A6C0004FB1FB5003B8DF800104FF0640103913F
:106A7C0018BF0123694601928DF80830FFF7DAFF41
:106A8C0005B05DF804FB0123FFF7EBBF007C00228F
:106A9C00FFF7FABCC9B2FFF7F9BF007C0022FFF781
:106AAC00FBBC0121FFF7F9BF704710B51821044654
:106ABC00FDF7EDFA204610BDF0B5037D062B8DB029
:106ACC000E4600F104074FF0000412D000F1080547
:106ADC0015F8011D0A22304600F07FF9AF4204443C
:106AEC0019D0002CF4D02E21304600F05DF904446E
:106AFC00EEE72F236A4639460A208DF80040FFF74F
:106B0C001BFD684601F0F6F933680246DB686946FE
:106B1C0030469847044620460DB0F0BD10B5054BE5
:106B2C000446112240F8043B002101F0A3F9204651
:106B3C0010BD00BFF0910B000346074A10B543F897
:106B4C00042B01F1100251F8044B43F8044B914211
:106B5C00F9D10A781A7010BDF0910B00037D042B4B
:106B6C0004D14068003818BF01207047062B07D1AC
:106B7C0043683BB983682BB9C3681BB90069F1E75B
:106B8C00002070470120704710B59DF8084044EA7A
:106B9C00032343EA024242EA016104234160037584
:106BAC0010BD000013B5044C04609DF81040009417
:106BBC00FFF7EAFF02B010BDF0910B0007B5064BD2
:106BCC000360CB7800938B784A780978FFF7DCFF69
:106BDC0003B05DF804FB00BFF0910B00014B024ABF
:106BEC001A607047D0E60320FC910B00002340682C
:106BFC001A46FFF7F5BD406800220221FFF700BEE0
:106C0C00002240681146FFF7F3BD00224068114690
:106C1C00FFF7FEBD002340681A461946FFF700BE79
:106C2C00002340681A461946FFF702BE406800214F
:106C3C00FFF726BE40680021FFF72ABE40680022FD
:106C4C0081F00101FFF7FCBD40680022FFF708BE90
:106C5C00002240681146FFF70BBE00224068114627
:106C6C00FFF7F6BD2DE9F04395B014460D460746E7
:106C7C00FFF754FF00211C220DA8009101F0FAF837
:106C8C0040230C9320466B460CAA0021FFF774FCA2
:106C9C00044600284BD1024601216868FFF7B8FD75
:106CAC000221804622466868FFF7B2FD009E8146AD
:106CBC002146002E3BD0002939D17368022B03D01A
:106CCC000A2B11D0F669F4E7B8F1000FFAD071690C
:106CDC0006A8043107ADFFF771FF0FCD3C1D0FC4A3
:106CEC002B6823704146EDE7B9F1000FEAD07469C7
:106CFC00102201A801F0BEF806238DF8143001AD66
:106D0C0004F108031834186859682A4603C208337A
:106D1C00A3421546F7D101A906A807ADFFF70CFF52
:106D2C000FCD3C1D0FC42B6823704946CAE7009851
:106D3C00FFF71AFC384615B0BDE8F083024B034A46
:106D4C001A6000225A607047D4E6032008920B00A8
:106D5C00F8B506460D468F180024BD420CD033689A
:106D6C0015F8011B9B6830469847031E01DB1C4439
:106D7C00F3E7002C08BF1C462046F8BD13B50446AB
:106D8C00084659B1019101F0B5F823680199DB6807
:106D9C000246204602B0BDE81040184702B010BDB4
:106DAC0008B5FFF7EBFF08BD03689B68184738B5BB
:106DBC000D210546FFF7F8FF0A2104462846FFF788
:106DCC00F3FF204438BD38B50546FFF7D7FF04461E
:106DDC002846FFF7ECFF204438BD30B58BB00023BC
:106DEC00012A8DF8243098BF0A2209AC0D46B1FB5C
:106DFC00F2F101FB125303F0FF03092B94BF303364
:106E0C003733DBB2AA4204F8013DEFD92146FFF734
:106E1C00B5FF0BB030BD2DE9F04186B000AF054693
:106E2C000E46381D142114463B60FFF751FD132804
:106E3C000ED8391D2846FFF7A1FF04461EB128467F
:106E4C00FFF7B5FF044420461837BD46BDE8F08176
:106E5C0000F1080323F00703E846ADEB030D2246CF
:106E6C00411C3B686846FFF733FD69462846FFF72F
:106E7C0085FF0446C546E1E7014B00229A60704746
:106E8C00DCE603200021FFF7E7BB0021FFF7DCBBAA
:106E9C0010B5044608462170FFF7B6FB002363606B
:106EAC00204610BD13B504460078FFF7EEFF58B925
:106EBC00207801904FF6FF71FFF796FB019802B016
:106ECC00BDE81040FFF7DEBF02B010BD0078FFF741
:106EDC00D9BF0000400830B51860002418688842FB
:106EEC00E5B206D90134082C02D040081860F5E749
:106EFC000725024B5B5D137030BD00BF3C920B004D
:106F0C002DE9F04306468FB000780C46FFF7BDFF25
:106F1C0000281BDB35781422002109A800F0AAFFF9
:106F2C000B23002209A92846ADF82430FFF77CFB7F
:106F3C009DF82D3013B19DF82C5055B10027B94652
:106F4C00B846012523795DB1C3B100200FB0BDE86F
:106F5C00F083DDF830809DF834909DF83570F1E7C2
:106F6C00002B35D1A368434508D18DF820908DF8BE
:106F7C002170BDF82020A3899A42E6D00023A16895
:106F8C008DF80F300A9804AB0DF10F02FFF7A2FF3A
:106F9C00217985B989B9A36843450ED38DF8209022
:106FAC008DF82170BDF82020A3899A4205D1049B4D
:106FBC00434502D1C9E70029F9D100230193637B32
:106FCC0000939DF80F20237B3078FFF735FBBCE74F
:106FDC00CDE900552B462A460121F5E708B5007886
:106FEC00FFF70AFBC0B208BD10B50446FFF7F4F971
:106FFC00E060236820465B699847002808DAFFF7B1
:10700C00EBF9E368C01AA3689842F2D34FF0FF3053
:10701C0010BD2DE9F04107460C468E180D46B542C1
:10702C00A5EB040807D03846FFF7DEFF031E02DB92
:10703C0005F8013BF3E74046BDE8F081054B022221
:10704C001A60054B054A9A600020C3E90000FFF75F
:10705C008BBB00BFF8E60320ECE603200000FFFF2B
:10706C0013B503688DF80710DC6B01224FF0FF336A
:10707C000DF10701A04702B010BD10B40368DC6B22
:10708C004FF0FF33A4465DF8044B604713B513462D
:10709C0002688DF80710D46B0DF107010122A0478F
:1070AC0002B010BD10B54369B3F88620B3F8843034
:1070BC009A42044608D06369B3F88420511CA3F8A3
:1070CC0084101344187910BD03681B699847002875
:1070DC00F1D14FF0FF30F6E7704743691868C043B1
:1070EC00C00F704770470000064B994210B500F175
:1070FC000C0405D0084600F08FFD002808BF0024C2
:10710C00204610BD7C910B0010B5AC210446FCF759
:10711C00BEFF204610BDAC21FCF7B9BF2DE9F041F4
:10712C004FF0000886B01C46C0F8048005460E4699
:10713C0017464146102202A800F09CFE631C09D0A1
:10714C004FF47A73B4FBF3F203FB1244CDE902283B
:10715C005C430494686910230093006802AB41F20D
:10716C00050240F6FF71FFF70FFA002807DAFFF768
:10717C00B7FB03686B60002006B0BDE8F08168695E
:10718C00002300683A463146FFF71EFA031EEEDB79
:10719C001846F1E738B584690A4B036005467CB1A3
:1071AC006368013B63605BB9236820469B68984722
:1071BC00A368013BA3601BB923682046DB68984792
:1071CC00284638BD80920B0010B50446FFF7E2FF4D
:1071DC0020461C21FCF75BFF204610BD30B587B064
:1071EC00044601AD6846FFF7E9FC0FCD04340FC42B
:1071FC002B68237007B030BD70B54D69054B044644
:10720C008C3544F8043B06460FCD0FC42B68237015
:10721C00304670BDF0910B002DE9F04398460368A1
:10722C0093B00D460024DB6A06461746984728465D
:10723C006B46224621460094FFF79EF9054600282E
:10724C0063D1009B002B4BD05B69002B48D006A868
:10725C00FFF764FC009B5C696378022B04D1211D51
:10726C0006A8FFF7BBFF26E00A2B24D111222946E2
:10727C0001A800F0FFFDA368002B38D004F108032F
:10728C000DF1040C183418685968624603C20833AF
:10729C00A3429446F7D1062301A90CA88DF814300B
:1072AC00FFF74AFC0DF1340CBCE80F0007AC0FC41F
:1072BC00DCF80030237006A8FFF750FC80B133686F
:1072CC0007ADD3F82090124B0C930FCD0DAC0FC41F
:1072DC002B6823703A4643460CA93046C8470546EE
:1072EC000098FFF741F9284613B0BDE8F083E36836
:1072FC00002BC3D14FF6FF70D4F81090FFF724F990
:10730C008145BBD104F11401AAE72546E8E700BF8B
:10731C00F0910B0038B543691A68002A054610DA5B
:10732C00B3F88620B3F884309A420AD103681B69FB
:10733C009847044628B92B682846DB6A98472046AC
:10734C0038BD0120FCE710B54369B3F88620B3F8CB
:10735C0084309A42044605D06369B3F88420134400
:10736C00187910BD03681B6998470028F4D14FF0B9
:10737C00FF30F6E7F8B543691746B3F88620B3F843
:10738C0084309A4205460E4616D06969B1F88430AD
:10739C00B1F88640E41ABC4228BF3C46043322466E
:1073AC001944304600F058FD6A69B2F88430234421
:1073BC00A2F884302046F8BD03681B699847002862
:1073CC00E3D14FF0FF34F5E742690023A2F8843093
:1073DC004269A2F8863070472DE9F0411F460368D8
:1073EC000C46DB6A8AB0054616469847237DD5F8CD
:1073FC001480042B0CBF02200A2006220121FFF767
:10740C00EBF8C8F800006B691B68002B08DA2B68D6
:10741C002846DB6A0024984720460AB0BDE8F08174
:10742C002846FFF7D1FFB7B1002303A9F8B20393A5
:10743C00ADF81030FFF778F80028E8D1686906231A
:10744C000093006803AB41F20B0240F6FF71FFF7AB
:10745C009BF80028DBD11C22002103A800F00AFDB8
:10746C00237D042B1DD14FF407733046ADF80C303F
:10747C00FFF772F8ADF80E006068FFF765F804903E
:10748C006B691C22186803A9FFF78EF80028BED17F
:10749C0004340FCC6D698C350FC523682B70012417
:1074AC00BAE740F61C233046ADF80C30FFF754F821
:1074BC0005AEADF80E00231D04F1140718685968C9
:1074CC00324603C20833BB421646F7D1D8E7000058
:1074DC0030B54269B2F886308BB004462BB1B2F8A5
:1074EC0084209A4201D1FFF76FFF61690868002878
:1074FC0018DBB1F886507F2D14D804310823C5F160
:10750C0080022944FFF758F8002813DD6369B3F8AB
:10751C0086200AB9A3F884206369B3F88620104446
:10752C00A3F886006369B3F88600B3F88430C01AF8
:10753C000BB030BDFFF7D4F903680B2BF2D0FFF77B
:10754C00CFF903680B2BEDD020230025CDE90235B4
:10755C00FFF7C6F903680193084B0949009302AA87
:10756C002B463220FFF7F8F863691868FFF714F818
:10757C0063694FF0FF321A60D4E700BF4B920B00E7
:10758C0044920B0010B5436904461868002801DBCF
:10759C00FFF702F863694FF0FF321A60606911223D
:1075AC0000218C3000F066FC2046BDE81040FFF74F
:1075BC000BBF10B5002304460160C0F8843088303E
:1075CC00FFF7ACFA204610BD73B500234FF47A7266
:1075DC00C0E901320E4A0361026043610446AC20EB
:1075EC000191FCF750FD051E05F10C0608D0012396
:1075FC00C5E90133074B01992B603046FFF7D9FFE2
:10760C002046C4E90565FFF7DFFE02B070BD00BF80
:10761C0080920B0064920B0010B54FF0FF310446C2
:10762C00FFF7D2FF204610BD10B5044600680028B5
:10763C0001DBFEF7B1FF204610BD0C30FFF7F4BFA5
:10764C00024B1A68024B1A60704700BF78E50320A2
:10765C00FCE6032070474174704708B5007CFFF7C7
:10766C0033F820EAE07008BD08B5007CFFF704F899
:10767C0020EAE07008BD08B5007CFFF70DF840EA81
:10768C00E07008BD08B5007CFEF7FEFF40EAE07034
:10769C0008BD007CFFF708B837B5457C04462DB112
:1076AC00207C03B0BDE83040FEF7DEBF007C0191CA
:1076BC00FFF70AF800280199F2DC284603B030BD28
:1076CC0010B514210446FCF7E2FC204610BD000066
:1076DC0010B54FF47A730446084611460022C4E9EB
:1076EC000123044B2360012320746374FEF7F4FF21
:1076FC00204610BDE8920B004174704770477047EC
:10770C0008B50021007CFFF707F840EAE07008BDDF
:10771C0008B50121007CFEF7FFFF40EAE07008BDD0
:10772C0008B5007CFEF7F0FF20EAE07008BD08B554
:10773C00007CFEF7E1FF20EAE07008BD13B50446BB
:10774C00007C0191FEF7E0FF0028019901DC607CD0
:10775C0020B1207CFEF7E8FF20EAE07002B010BDFB
:10776C00007CFEF7E9BF10B514210446FCF78FFC32
:10777C00204610BD10B54FF47A730446084600211C
:10778C00C4E90113044B2360012320746374114674
:10779C00FEF7AAFF204610BD18930B0010B514225B
:1077AC000446002100F066FB204610BD10B50F4CBE
:1077BC0088B003A8FFF7F2FF2178BFF35B8F11F0BD
:1077CC0001010FD120460191FCF770FC019948B1E1
:1077DC0003AA0748FFF7CEFF2046FCF76CFC0548D0
:1077EC0000F02CFB024808B010BD00BF00E70320DE
:1077FC0004E7032009770B00002240681146FFF7CD
:10780C0007B8002240681146FFF722B800224068F2
:10781C001146FFF72DB840680022FFF721B84068E9
:10782C00002281F00101FFF70BB8002340681A46D3
:10783C001946FEF7FDBF002340681A461946FEF7AD
:10784C00EFBF002240681146FEF7D2BF406800220D
:10785C000221FEF7D5BF002340681A46FEF7C0BFD1
:10786C00024B04225A60024A1A60704718E7032040
:10787C0048930B00014B1860704700BF7CE5032058
:10788C0008B50B4B43B1FFF791FF03681B69984791
:10789C00002801DDAFF30080064B43B100F096F9F0
:1078AC0003681B699847002801DDAFF3008008BD11
:1078BC00000000000000000008B5FFF7E1FFFEF734
:1078CC008BFD014B186008BD28E703200548064ACC
:1078DC00064908B5121A00F0BFFA054B054A1A60A2
:1078EC0008BD00BF00F4032004F4032034960B0001
:1078FC0000F403201E1C279A07B5002300931A4698
:10790C006FF07701FEF752FF03B05DF804FB000047
:10791C0007B543880A2B08D0502B0BD1094B1B6899
:10792C004BB103B05DF804EB1847FFF7E5FF03B06C
:10793C005DF804FB002300931A466FF07701FEF705
:10794C0035FFF4E724E7032010B512480021FEF7B9
:10795C00D7FF114B1A68114B9A42114B0CBF0122E5
:10796C0000221A7001D0FFF7B1FFFEF725FD044687
:10797C0000F088FA0B4B13B12046AFF300800021C6
:10798C000848FEF725FFBDE8104007480021FEF728
:10799C0003BF00BF81780B0000F403201E1C279A44
:1079AC0020E70320000000001D790B00232813B5ED
:1079BC0002D9002002B010BDA0F10B03022B1AD883
:1079CC00174C2178BFF35B8F11F001010BD12046CE
:1079DC000191FCF76BFB019928B11248FFF758FA9B
:1079EC002046FCF768FB0F4B1878FEF715FE0028B5
:1079FC00DFD10120DEE7012809D800F0A7F800212B
:107A0C00007CFEF779FD80F00100C0B2D2E70938A6
:107A1C000128EED800F0DAF8007CFEF74DFEF2E714
:107A2C00B8E60320BCE60320232838B504460D46EF
:107A3C000AD8FF2908D0FFF7B9FF28B129462046FC
:107A4C00BDE83840FEF7D8BC38BD38B504460D4605
:107A5C00FEF7DAFCFF2810D0062804D84D2323FAB1
:107A6C0000F0C30709D42046FFF7A0FF28B1294630
:107A7C002046BDE83840FEF7CFBC38BD10B50446F3
:107A8C00FEF7C2FC031FDBB2012B08D92046FFF71F
:107A9C008DFF20B12046BDE81040FEF7C5BC00208C
:107AAC0010BD0D2810B504469CBF0E34A4B2204660
:107ABC00FFF77CFF50B103212046FEF795FC03280D
:107ACC0004D12046BDE81040FEF7BEBC002010BD1E
:107ADC0038B504460D46FFF769FFF0B10421204686
:107AEC00FEF782FC042805D1A9B22046BDE8384037
:107AFC00FEF7A2BC02212046FEF776FC02280CD130
:107B0C002046FEF781FC012801D0042805D1294626
:107B1C002046BDE83840FEF79FBC38BD70470000DA
:107B2C0038B5202514230446036085600561064999
:107B3C00284600F06FF804496060284600F06AF8A7
:107B4C00E060204638BD00BF7C930B0030B50E4D75
:107B5C002978BFF35B8F11F0010487B011D128464F
:107B6C00FCF7A4FA68B101A8FFF7DAFF01AA2146D5
:107B7C000648FEF743FF2846FCF79DFA044800F040
:107B8C005DF9024807B030BD2CE7032030E7032035
:107B9C00297B0B007047000038B5044614252A4693
:107BAC00002100F067F925804025074925812846EA
:107BBC00258200F02FF804496060284600F02AF86E
:107BCC00E060204638BD00BF7C930B0030B50E4DF5
:107BDC002978BFF35B8F11F0010487B011D12846CF
:107BEC00FCF764FA68B101A8FFF7D6FF01AA214699
:107BFC000648FFF76DFD2846FCF75DFA044800F0D7
:107C0C001DF9024807B030BD44E7032048E70320C4
:107C1C00A17B0B00FCF739BA014900F0F9B800BFA1
:107C2C0098930B007FB500241023CDE90234036830
:107C3C0015469E6912686B46CDE90044B0479DF825
:107C4C00043003F00603062B03BF009B2B600120BE
:107C5C00204604B070BD0098904214BF012006204D
:107C6C007047000010B5034B0360044600F0CDF8DC
:107C7C00204610BDD8930B0010B50446FFF7F2FF59
:107C8C0020460821FCF703FA204610BD2DE9F041EF
:107C9C001F46DDE90834DDF8188098450646154680
:107CAC0007D1079900F0B4F818B165710020BDE850
:107CBC00F0813946304600F0ABF80028F6D00123AD
:107CCC00C4F800802571A371F0E738B515461C4641
:107CDC0000F09EF820B10823E36006232560237191
:107CEC0038BD73B505460C4601921E4600F090F85F
:107CFC0050B9032E08D82368019A5B69294620469F
:107D0C0002B0BDE87040184702B070BD10B5034B0F
:107D1C0003600446FFF7A6FF204610BD38940B0005
:107D2C0010B50446FFF7F2FF20460C21FCF7AFF923
:107D3C00204610BDF7B5089F974205460E461446DF
:107D4C000AD0A86802680897156A31462246AC46E4
:107D5C0003B0BDE8F04060471946019300F058F8B5
:107D6C00019B0028EDD0062003B0F0BD2DE9F14FAA
:107D7C000D461946DDE90A4BDDE90CA6814617468E
:107D8C00984600F045F890B1002D3460377109DB4E
:107D9C0061198A450CBF06210121B171002001B087
:107DAC00BDE8F08F0235F9D10123B371F6E75445E4
:107DBC0006D15946484600F02BF808B17771EDE72B
:107DCC00D9F808000368CDE90CA6CDE90A4BDC69AB
:107DDC003A4643462946A44601B0BDE8F04F6047F9
:107DEC002DE9F04107460C4615461E46FFF76DFF80
:107DFC0048B9B86803689F692A4633462146BC4691
:107E0C00BDE8F0416047BDE8F08170470020704745
:107E1C00814208B50ED0406803782A2B0CD04968F3
:107E2C000B782A2B08BF013100F05AF8B0FA80F019
:107E3C00400908BD0120FCE70020FAE700230146B9
:107E4C001A46184600F0FEB80A22002100F0F0B8DD
:107E5C000A22002100F0ECB80A44914200F1FF33F1
:107E6C0000D1704710B511F8014B03F8014F914246
:107E7C00F9D110BD02440346934200D1704703F878
:107E8C00011BF9E738B5104B1D68AB6B0446B3B951
:107E9C001820FEF705FD0246A86320B90B4B0C48D1
:107EAC004221FEF725FD0B490B4BC0E900130B4B90
:107EBC0083600B23838100210120C2E90401AB6B99
:107ECC0000221C615A6138BD7CE5032071940B00C3
:107EDC0088940B000E33CDAB34126DE6ECDE05004E
:107EEC0010F8012B11F8013B012A28BF9A42F7D058
:107EFC00D01A7047034613F8012B002AFBD1181A2D
:107F0C000138704710B50139034632B111F8014FF1
:107F1C0003F8014B013A002CF7D11A44002193428B
:107F2C0000D110BD03F8011BF9E70000012B2DE96E
:107F3C00F04701D0242B06D9FEF7D2FC16230360A0
:107F4C000020BDE8F087DFF8E4C00D462E4615F89A
:107F5C00014B14F80C7017F00807F7D12D2C32D107
:107F6C002C780127B51C002B5BD0102B09D1302CA1
:107F7C0007D12C7804F0DF04582C4DD16C781023E9
:107F8C00023507F1004808F1FF384FF0000CB8FB40
:107F9C00F3F9664603FB198AA4F1300EBEF1090F02
:107FAC0016D87446A34224DDBCF1000F1EDBB1458C
:107FBC001CD301D1A24519DB06FB03464FF0010C83
:107FCC0015F8014BE8E72B2C04BF2C78B51CCAE73D
:107FDC00A4F1410EBEF1190F01D8373CE2E7A4F130
:107FEC00610EBEF1190F04D8573CDBE74FF0FF3C94
:107FFC00E6E7BCF1000F05DA22230360464642B9DE
:10800C0030469EE707B17642002AF9D0BCF1000F4A
:10801C0000D0691E1160F3E73024002BB1D1082386
:10802C00AFE7302CA5D00A23ABE700BFE2940B00DE
:10803C0013460A46014602480068FFF777BF00BFA7
:10804C007CE503202DE9F843DFF8B8800646D8F824
:10805C0000001F460D46914600F056F8254B1C6853
:10806C0034B9254C1C60254B13B11B68C4F88830FF
:10807C0063681F2B07DDD8F8000000F047F84FF0BD
:10808C00FF30BDE8F8834EB3D4F8880088B91C4B98
:10809C0023B9D8F8000000F038F8F0E74FF48470FA
:1080AC00FEF7FEFB0028F4D00023C0E94033C4F8EF
:1080BC008800636840F8239001229A4000EB83010A
:1080CC00D0F800311343C0F80031022EC1F8807093
:1080DC0002BFD0F804311343C0F804316368D8F8F8
:1080EC0000005A1C0233626044F8235000F00EF872
:1080FC000020C6E7E8E703205CE70320000000004F
:10810C00AD680B00E0E50320704770477047000036
:10811C001D400B0059400B0081400B0085400B00AB
:10812C000000000043616C6C206F6E2070757265EE
:10813C00207669727475616C00256900256C690084
:10814C0050726F78696D6974792056616C75653AF7
:10815C002000416D6269656E74206C6967687420DB
:10816C006C6576656C3A2000696E006F75740070F2
:10817C00776D00647700617700537061726B4675A0
:10818C006E2056434E4C34303430204578616D703F
:10819C006C65004868534E6F485A683048693449DA
:1081AC00366945327677774C6F7575317572684BD9
:1081BC0050463300446576696365206E6F742066A3
:1081CC006F756E642E20506C6561736520636865F5
:1081DC00636B20776972696E672E00767700257560
:1081EC0000626C6E6B696E660076657200312E31C2
:1081FC002E3000682D62656174003435006275663E
:10820C00662D696E00313032340064657600506141
:10821C00727469636C65204172676F6E0062756978
:10822C006C64004A756E203330203230323220318B
:10823C00333A34393A303800000000000000003E78
:10824C005B4F5B3E3E6B4F6B3E1C3E7C3E1C183CBA
:10825C007E3C181C577D571C1C5E7F5E1C00183C16
:10826C001800FFE7C3E7FF0018241800FFE7DBE75F
:10827C00FF30483A060E2629792926407F05050746
:10828C00407F05253F5A3CE73C5A7F3E1C1C0808A2
:10829C001C1C3E7F14227F22145F5F005F5F060967
:1082AC007F017F006689956A606060606094A2FFC0
:1082BC00A29408047E040810207E201008082A1CB2
:1082CC0008081C2A08081E101010100C1E0C1E0C7E
:1082DC0030383E3830060E3E0E060000000000001E
:1082EC00005F00000007000700147F147F14242A8D
:1082FC007F2A12231308646236495620500008075F
:10830C000300001C2241000041221C002A1C7F1C7F
:10831C002A08083E08080080703000080808080881
:10832C00000060600020100804023E5149453E00E8
:10833C00427F400072494949462141494D33181446
:10834C00127F1027454545393C4A49493141211195
:10835C0009073649494936464949291E0000140087
:10836C0000004034000000081422411414141414AA
:10837C00004122140802015909063E415D594E7C08
:10838C001211127C7F494949363E414141227F41BD
:10839C0041413E7F494949417F090909013E41411B
:1083AC0051737F0808087F00417F41002040413F06
:1083BC00017F081422417F404040407F021C027F15
:1083CC007F0408107F3E4141413E7F090909063E6A
:1083DC004151215E7F091929462649494932030139
:1083EC007F01033F4040403F1F2040201F3F40384B
:1083FC00403F631408146303047804036159494D26
:10840C0043007F4141410204081020004141417F5B
:10841C0004020102044040404040000307080020D1
:10842C00545478407F2844443838444444283844D1
:10843C0044287F385454541800087E090218A4A408
:10844C009C787F0804047800447D40002040403D27
:10845C00007F1028440000417F40007C04780478A1
:10846C007C080404783844444438FC182424181834
:10847C00242418FC7C080404084854545424040490
:10848C003F44243C4040207C1C2040201C3C40307D
:10849C00403C44281028444C9090907C4464544CAC
:1084AC004400083641000000770000004136080007
:1084BC0002010204023C2623263C1EA1A161123AB1
:1084CC004040207A385454555921555579412254FD
:1084DC00547842215554784020545579400C1E5202
:1084EC0072123955555559395454545939555454A7
:1084FC00580000457C410002457D420001457C400E
:10850C007D1211127DF0282528F07C545545002051
:10851C0054547C547C0A097F4932494949323A44C3
:10852C0044443A324A4848303A4141217A3A42402E
:10853C002078009DA0A07D3D4242423D3D40404000
:10854C003D3C24FF2424487E4943662B2FFC2F2BD3
:10855C00FF0929F620C0887E090320545479410074
:10856C0000447D413048484A32384040227A007AF3
:10857C000A0A727D0D19317D2629292F28262929D1
:10858C00292630484D4020380808080808080808F3
:10859C00382F10C8ACBA2F102834FA00007B00001A
:1085AC0008142A142222142A14085500550055AA1E
:1085BC0055AA55AAFF55FF55FF000000FF001010EB
:1085CC0010FF00141414FF001010FF00FF1010F027
:1085DC0010F0141414FC001414F700FF0000FF003A
:1085EC00FF1414F404FC141417101F10101F101F88
:1085FC001414141F00101010F0000000001F1010B5
:10860C0010101F10101010F010000000FF101010B0
:10861C00101010101010FF10000000FF140000FFCD
:10862C0000FF00001F10170000FC04F414141710B6
:10863C00171414F404F40000FF00F71414141414A9
:10864C001414F700F7141414171410101F101F141F
:10865C001414F4141010F010F000001F101F000080
:10866C00001F14000000FC140000F010F01010FFAC
:10867C0010FF141414FF141010101F00000000F051
:10868C0010FFFFFFFFFFF0F0F0F0F0FFFFFF000026
:10869C00000000FFFF0F0F0F0F0F3844443844FC4D
:1086AC004A4A4A347E02020606027E027E02635564
:1086BC004941633844443C04407E201E2006027E1F
:1086CC00020299A5E7A5991C2A492A1C4C72017231
:1086DC004C304A4D4D303048784830BC625A463D9B
:1086EC003E494949007E0101017E2A2A2A2A2A4450
:1086FC00445F444440514A444040444A5140000085
:10870C00FF0103E080FF000008086B6B083612368F
:10871C002436060F090F0600001818000000101070
:10872C00003040FF0101001F01011E00191D17122E
:10873C00003C3C3C3C00000000000000000000003D
:10874C0000000000000000000000000031540B008D
:10875C005D6D0B00A1400B00374E0B00394E0B002A
:10876C006B4E0B00474E0B00594E0B00794D0B0016
:10877C00374E0B0063500B0061500B00834E0B0007
:10878C00C14E0B00FB4E0B00414F0B005D4F0B001D
:10879C00E14F0B0064656661756C7420004D5342AB
:1087AC00004C5342003C53504953657474696E67D6
:1087BC00732064656661756C743E003C535049537C
:1087CC00657474696E677320257325752025732075
:1087DC004D4F444525753E00000000000000000090
:1087EC006D550B003F550B0041550B000000000070
:1087FC000001800000000000000000000380000069
:10880C000000000000000007C00000000000000095
:10881C00000007C00000000000000000000FC000B6
:10882C0000000000000000001FE00000000000003D
:10883C000000001FE00000000000000000003FE00E
:10884C000000000000000000003FF00000000000ED
:10885C00000000007FF0000000000000001FF87F07
:10886C00F0000000000000003FFE7FF00000000060
:10887C000000003FFF7FF0000000000000001FFF21
:10888C00FBE0000000000000000FFFF9FFC000003B
:10889C00000000000FFFF9FFF800000000000007C7
:1088AC00FFF1FFFF00000000000003FC73FFFF80DE
:1088BC00000000000001FE3FFFFF800000000000F0
:1088CC0000FF1E0FFF000000000000007FFE1FFCD9
:1088DC00000000000000003FFFFFF8000000000057
:1088EC0000000FDFFFE0000000000000001F19FF78
:1088FC00C0000000000000003F3CFF000000000032
:10890C000000007E7CF800000000000000007FFEEC
:10891C007C0000000000000000FFFFFC00000000D5
:10892C0000000000FFFFFE0000000000000000FF40
:10893C00FFFE0000000000000001FFEFFE00000041
:10894C000000000001FFCFFE00000000000000034B
:10895C00FF07FE0000000000000003FC07FE000003
:10896C00000000000003F003FE0000000000000007
:10897C00018000FE000000000000000000007E00EE
:10898C000000000000000000003E0000000000009D
:10899C00000000000C000000000000078000FC003C
:1089AC000003C0000000078001FC000003C00000B1
:1089BC0000078001FC000003C0000000078001E0FC
:1089CC000000001E000000078001E00000001E00F7
:1089DC007FE3F79FF9FDE7787BDFC0FFF7FFBFFD73
:1089EC00FDFF787BDFC0FFF7FFBFFDFDFF787BDF6E
:1089FC00C0F0F787BC3DE1FF787BDE00F0F787BC69
:108A0C003DE1F0787BDE0000F787803DE1E0787B8C
:108A1C00DE007FF7879FFDE1E0787BDE00FFF787C4
:108A2C00BFFDE1E0787BDE00F0F787BC3DE1E0784C
:108A3C007BDE00F0F787BC3DE1E0787BDE00F0F7F1
:108A4C0087BC3DE1E0787BDE00FFF7FFBFFDE1E096
:108A5C007FFBDFC0FFF7FFBFFDE1E07FFBDFC07CEA
:108A6C00F3F39F3DE1E03E7BCFC00000000000002F
:108A7C000000000000FFFFFFFFFFFFFFFFFFFFC034
:108A8C00FFFFFFFFFD68DB111A31C0FFFFFFFFFD89
:108A9C002B5AFB6AEFC0FFFFFFFFFD4B5B3B1A330A
:108AAC00C0FFFFFFFFFD6B5BDB6AFDC000006000D9
:108ABC0000000000000000000000000000E00000CA
:108ACC00000000000000000000000001E0000000B9
:108ADC000000000000000000000001F00000000099
:108AEC0000000000000000000003F0000000000087
:108AFC00000000000000000007F000000000000073
:108B0C000000000000000007F8000000000000005A
:108B1C000000000000000FF800000003C0007E0001
:108B2C000001E0007F0FF800000003C000FE000011
:108B3C0001E000FFEFF800000003C000FE000001A0
:108B4C00E000FFFFF800000003C000F00000000F81
:108B5C00007FFE7FC0000003C000F00000000F008B
:108B6C003FFE7FF83FF1FBCFFCFEF3BC3DEFE01F77
:108B7C00FE7FFF7FFBFFDFFEFEFFBC3DEFE01FC66D
:108B8C00FFFF7FFBFFDFFEFEFFBC3DEFE00FE3C707
:108B9C00FE787BC3DE1EF0FFBC3DEF0007FF87FCB9
:108BAC00787BC3DE1EF0F83C3DEF0001FFFFF000C8
:108BBC007BC3C01EF0F03C3DEF0001F37FE03FFBB8
:108BCC00C3CFFEF0F03C3DEF0003E33F807FFBC3DF
:108BDC00DFFEF0F03C3DEF0007E73C00787BC3DEA6
:108BEC001EF0F03C3DEF0007FFBE00787BC3DE1E9D
:108BFC00F0F03C3DEF0007FFFE00787BC3DE1EF07B
:108C0C00F03C3DEF000FFFFE007FFBFFDFFEF0F0BE
:108C1C003FFDEFE00FFFFF007FFBFFDFFEF0F03FBB
:108C2C00FDEFE00FF9FF003E79F9CF9EF0F01F3D0C
:108C3C00E7E01FF1FF000000000000000000000052
:108C4C00001F80FF007FFFFFFFFFFFFFFFFFFFE024
:108C5C001C007F007FFFFFFFFEB46D888D18E000C5
:108C6C00001F007FFFFFFFFE95AD7DB577E0000094
:108C7C000F007FFFFFFFFEA5AD9D8D19E0000006E4
:108C8C00007FFFFFFFFEB5ADEDB57EE000000000FC
:108C9C0000000000C1550B00D9550B0031540B00DE
:108CAC005D6D0B00ED550B00374E0B00394E0B0074
:108CBC006B4E0B00474E0B00594E0B00794D0B00C1
:108CCC00374E0B0063500B008B570B00335D0B00C2
:108CDC00E55C0B00FB4E0B00414F0B005D4F0B0096
:108CEC00E14F0B000080C0E0F0F8FCFE0001030730
:108CFC000F1F3F7FAED580A8D300408D2000A1C8A8
:108D0C00DB40A4A62EAFDA02818FDA1281DA02815F
:108D1C002200FF2100000000000000000000000005
:108D2C000D620B002D620B0031540B005D6D0B00BE
:108D3C00ED550B00374E0B00394E0B006B4E0B00F4
:108D4C00474E0B00594E0B00794D0B00374E0B0064
:108D5C0063500B008B570B00335D0B00E55C0B0075
:108D6C00FB4E0B00414F0B005D4F0B00E14F0B0016
:108D7C00894C0B0065630B0065630B0065630B008E
:108D8C0065630B0065630B0065630B0065630B008B
:108D9C0065630B0065630B0065630B0065630B007B
:108DAC0065630B0065630B0065630B0065630B006B
:108DBC0065630B0065630B0065630B0065630B005B
:10918C0093690B0089690B007F690B0075690B00F3
:10919C0069690B005D690B00396C0B00416C0B00AD
:1091AC0051690B0049690B003F690B0035690B00D5
:1091BC00716C0B000000000000000000B1690B0096
:1091CC00FB690B00D3690B00B3690B00DB690B0067
:1091DC00E3690B00EB690B00F3690B000000000066
:1091EC0000000000C56A0B00B56A0B00B76A0B00E3
:1091FC00617070000000000000000000F96B0B00B3
:10920C00036C0B000D6C0B00176C0B00216C0B002E
:10921C002D6C0B00396C0B00416C0B00496C0B0076
:10922C00556C0B005D6C0B00676C0B00716C0B00CC
:10923C000008101820283038776972696E67007240
:10924C00656376206572726F72203D202564000084
:10925C000000000000000000F1700B0015710B0005
:10926C0047760B0023710B00F5700B00000000001B
:10927C0000000000A1710B00D5710B006D700B008C
:10928C0087700B00DD740B00B1700B0053730B0077
:10929C00E5700B00E5730B0025720B0081730B005E
:1092AC0091750B0021730B00E7700B0099700B008C
:1092BC0029710B0005720B0025592D256D2D256488
:1092CC005425483A254D3A2553257A006173637429
:1092DC00696D6500000000000000000061760B0065
:1092EC00CD760B00A5760B005D6D0B0075760B0033
:1092FC0091760B0083760B009F760B0063760B0048
:10930C0067760B0000000000000000000B770B00DC
:10931C0073770B0049770B005D6D0B003B770B00EF
:10932C000D770B001D770B006D770B002D770B0065
:10933C0005770B00000000000000000063780B00B4
:10934C0059780B004F780B0005780B0043780B0015
:10935C0037780B00396C0B00416C0B002B780B0031
:10936C0023780B0019780B000F780B00716C0B0035
:10937C0000537431395F53705F6D616B655F736857
:10938C00617265645F74616700000000D8930B0024
:10939C007D930B0038940B00AC930B005C940B008A
:1093AC004E31305F5F637878616269763131375F57
:1093BC005F636C6173735F747970655F696E666F00
:1093CC004500000000000000A0930B00717C0B0016
:1093DC00857C0B00197E0B00197E0B00EF7C0B00BB
:1093EC00317C0B00D77C0B00997C0B00637C0B0051
:1093FC0038940B0008940B00A0930B004E31305F97
:10940C005F637878616269763132305F5F73695F70
:10941C00636C6173735F747970655F696E666F45B9
:10942C000000000000000000FC930B00197D0B00F5
:10943C002D7D0B00197E0B00197E0B00EF7C0B00B1
:10944C00317C0B00ED7D0B00797D0B00417D0B0019
:10945C00D8930B0064940B00537439747970655F66
:10946C00696E666F005245454E54206D616C6C6F91
:10947C006320737563636565646564002F746D7038
:10948C002F6A656E6B696E732D4743432D31302DFA
:10949C00706970656C696E652D34385F32303230AE
:1094AC00313132345F313630363138303633392F52
:1094BC007372632F6E65776C69622F6E65776C695A
:1094CC00622F6C6962632F7374646C69622F7261B2
:1094DC006E642E63000020202020202020202028D5
:1094EC002828282820202020202020202020202050
:1094FC002020202020208810101010101010101088
:10950C0010101010101004040404040404040404C7
:10951C001010101010101041414141414101010146
:10952C00010101010101010101010101010101011F
:10953C00011010101010104242424242420202022C
:10954C0002020202020202020202020202020202EF
:10955C00021010101020000000000000000000009D
:10956C0000000000000000000000000000000000EF
:10957C0000000000000000000000000000000000DF
:10958C0000000000000000000000000000000000CF
:10959C0000000000000000000000000000000000BF
:1095AC0000000000000000000000000000000000AF
:1095BC00000000000000000000000000000000009F
:1095CC00000000000000000000000000000000008F
:1095DC000000000000000000254D0B0025690B0069
:1095EC009D690B00E96B0B00496D0B00856E0B0040
:1095FC0049700B004D760B006D780B0000000000DD
:04960C00000000005A
:10961000040000001400000003000000474E550045
:10962000EBB70B6796CDF37FEDEB40239DE24463F0
:049630000E4B17DDE9
:049634000000000032
:1096380001000000D8920B0080E503200000000024
:109648000000000000000000000000000000000012
:109658000000000000000000000000000000000002
:1096680000000000000000000000000000000000F2
:1096780000000000000000000000000000000000E2
:1096880000000000000000000000000000000000D2
:10969800000000000000000000000000ECE70320CC
:1096A800FFFFFFFF00000102030405060708090A7F
:1096B8000B0C0D0E0F101112131415161718191A7A
:0896C8001B1C1D1E1F202800C1
:0496D0007856341282
:04000003B000401CED
:00000001FF
